{
  "transactions": [
    {
      "hash": "0x6e1636d6a2a2f3af9b9dd42b3b7bc6037495ef4444531d70d26bba8bed9bbaa7",
      "transactionType": "CALL",
      "contractName": null,
      "contractAddress": "0xba5ed099633d3b313e4d5f7bdc1305d3c28ba5ed",
      "function": "deployCreate3(bytes32,bytes)",
      "arguments": [
        "0xf45b164f434c1c045156a63b8434b0f717da4d1f00f08196e9abf121869d7e4f",
        "0x608060405234801561000f575f5ffd5b5061001f3361002460201b60201c565b610104565b61003261010060201b60201c565b156100aa577fffffffffffffffffffffffffffffffffffffffffffffffffffffffff7487392780541561006c57630dc149f05f526004601cfd5b8160601b60601c9150811560ff1b82178155815f7f8be0079c531659141344cd1fd0a4f28419497f9722a3daafe3b4186f6b6457e05f5fa3506100fd565b8060601b60601c9050807fffffffffffffffffffffffffffffffffffffffffffffffffffffffff7487392755805f7f8be0079c531659141344cd1fd0a4f28419497f9722a3daafe3b4186f6b6457e05f5fa35b50565b5f90565b610715806101115f395ff3fe60806040526004361061009b575f3560e01c80638381f58a116100635780638381f58a1461010f5780638da5cb5b14610139578063d09de08a14610163578063f04e283e14610179578063f2fde38b14610195578063fee81cf4146101b15761009b565b8063256929621461009f5780633fb5c1cb146100a957806354d1f13d146100d157806354fd4d50146100db578063715018a614610105575b5f5ffd5b6100a76101ed565b005b3480156100b4575f5ffd5b506100cf60048036038101906100ca91906104db565b61023e565b005b6100d961024f565b005b3480156100e6575f5ffd5b506100ef610288565b6040516100fc9190610576565b60405180910390f35b61010d6102c1565b005b34801561011a575f5ffd5b506101236102d4565b60405161013091906105a5565b60405180910390f35b348015610144575f5ffd5b5061014d6102d9565b60405161015a91906105fd565b60405180910390f35b34801561016e575f5ffd5b50610177610301565b005b610193600480360381019061018e9190610640565b610319565b005b6101af60048036038101906101aa9190610640565b610357565b005b3480156101bc575f5ffd5b506101d760048036038101906101d29190610640565b610380565b6040516101e491906105a5565b60405180910390f35b5f6101f6610399565b67ffffffffffffffff164201905063389a75e1600c52335f52806020600c2055337fdbf36a107da19e49527a7176a1babf963b4b0ff8cde35ee35d6cd8f1f9ac7e1d5f5fa250565b6102466103a3565b805f8190555050565b63389a75e1600c52335f525f6020600c2055337ffa7b8eab7da67f412cc9575ed43464468f9bfbae89d1675917346ca6d8fe3c925f5fa2565b6040518060400160405280600d81526020017f312e302e342d436f756e7465720000000000000000000000000000000000000081525081565b6102c96103a3565b6102d25f6103da565b565b5f5481565b5f7fffffffffffffffffffffffffffffffffffffffffffffffffffffffff7487392754905090565b5f5f81548092919061031290610698565b9190505550565b6103216103a3565b63389a75e1600c52805f526020600c20805442111561034757636f5e88185f526004601cfd5b5f815550610354816103da565b50565b61035f6103a3565b8060601b61037457637448fbae5f526004601cfd5b61037d816103da565b50565b5f63389a75e1600c52815f526020600c20549050919050565b5f6202a300905090565b7fffffffffffffffffffffffffffffffffffffffffffffffffffffffff748739275433146103d8576382b429005f526004601cfd5b565b6103e26104a0565b15610447577fffffffffffffffffffffffffffffffffffffffffffffffffffffffff748739278160601b60601c91508181547f8be0079c531659141344cd1fd0a4f28419497f9722a3daafe3b4186f6b6457e05f5fa3811560ff1b821781555061049d565b7fffffffffffffffffffffffffffffffffffffffffffffffffffffffff748739278160601b60601c91508181547f8be0079c531659141344cd1fd0a4f28419497f9722a3daafe3b4186f6b6457e05f5fa3818155505b50565b5f90565b5f5ffd5b5f819050919050565b6104ba816104a8565b81146104c4575f5ffd5b50565b5f813590506104d5816104b1565b92915050565b5f602082840312156104f0576104ef6104a4565b5b5f6104fd848285016104c7565b91505092915050565b5f81519050919050565b5f82825260208201905092915050565b8281835e5f83830152505050565b5f601f19601f8301169050919050565b5f61054882610506565b6105528185610510565b9350610562818560208601610520565b61056b8161052e565b840191505092915050565b5f6020820190508181035f83015261058e818461053e565b905092915050565b61059f816104a8565b82525050565b5f6020820190506105b85f830184610596565b92915050565b5f73ffffffffffffffffffffffffffffffffffffffff82169050919050565b5f6105e7826105be565b9050919050565b6105f7816105dd565b82525050565b5f6020820190506106105f8301846105ee565b92915050565b61061f816105dd565b8114610629575f5ffd5b50565b5f8135905061063a81610616565b92915050565b5f60208284031215610655576106546104a4565b5b5f6106628482850161062c565b91505092915050565b7f4e487b71000000000000000000000000000000000000000000000000000000005f52601160045260245ffd5b5f6106a2826104a8565b91507fffffffffffffffffffffffffffffffffffffffffffffffffffffffffffffffff82036106d4576106d361066b565b5b60018201905091905056fea2646970667358221220bb5093f7c2a099248674cac8bb39e4e4115f2003207c5f70d0c6b67da80356d564736f6c634300081d0033"
      ],
      "transaction": {
        "from": "0xf45b164f434c1c045156a63b8434b0f717da4d1f",
        "to": "0xba5ed099633d3b313e4d5f7bdc1305d3c28ba5ed",
        "gas": "0xae703",
        "value": "0x0",
        "input": "0x9c36a286f45b164f434c1c045156a63b8434b0f717da4d1f00f08196e9abf121869d7e4f00000000000000000000000000000000000000000000000000000000000000400000000000000000000000000000000000000000000000000000000000000826608060405234801561000f575f5ffd5b5061001f3361002460201b60201c565b610104565b61003261010060201b60201c565b156100aa577fffffffffffffffffffffffffffffffffffffffffffffffffffffffff7487392780541561006c57630dc149f05f526004601cfd5b8160601b60601c9150811560ff1b82178155815f7f8be0079c531659141344cd1fd0a4f28419497f9722a3daafe3b4186f6b6457e05f5fa3506100fd565b8060601b60601c9050807fffffffffffffffffffffffffffffffffffffffffffffffffffffffff7487392755805f7f8be0079c531659141344cd1fd0a4f28419497f9722a3daafe3b4186f6b6457e05f5fa35b50565b5f90565b610715806101115f395ff3fe60806040526004361061009b575f3560e01c80638381f58a116100635780638381f58a1461010f5780638da5cb5b14610139578063d09de08a14610163578063f04e283e14610179578063f2fde38b14610195578063fee81cf4146101b15761009b565b8063256929621461009f5780633fb5c1cb146100a957806354d1f13d146100d157806354fd4d50146100db578063715018a614610105575b5f5ffd5b6100a76101ed565b005b3480156100b4575f5ffd5b506100cf60048036038101906100ca91906104db565b61023e565b005b6100d961024f565b005b3480156100e6575f5ffd5b506100ef610288565b6040516100fc9190610576565b60405180910390f35b61010d6102c1565b005b34801561011a575f5ffd5b506101236102d4565b60405161013091906105a5565b60405180910390f35b348015610144575f5ffd5b5061014d6102d9565b60405161015a91906105fd565b60405180910390f35b34801561016e575f5ffd5b50610177610301565b005b610193600480360381019061018e9190610640565b610319565b005b6101af60048036038101906101aa9190610640565b610357565b005b3480156101bc575f5ffd5b506101d760048036038101906101d29190610640565b610380565b6040516101e491906105a5565b60405180910390f35b5f6101f6610399565b67ffffffffffffffff164201905063389a75e1600c52335f52806020600c2055337fdbf36a107da19e49527a7176a1babf963b4b0ff8cde35ee35d6cd8f1f9ac7e1d5f5fa250565b6102466103a3565b805f8190555050565b63389a75e1600c52335f525f6020600c2055337ffa7b8eab7da67f412cc9575ed43464468f9bfbae89d1675917346ca6d8fe3c925f5fa2565b6040518060400160405280600d81526020017f312e302e342d436f756e7465720000000000000000000000000000000000000081525081565b6102c96103a3565b6102d25f6103da565b565b5f5481565b5f7fffffffffffffffffffffffffffffffffffffffffffffffffffffffff7487392754905090565b5f5f81548092919061031290610698565b9190505550565b6103216103a3565b63389a75e1600c52805f526020600c20805442111561034757636f5e88185f526004601cfd5b5f815550610354816103da565b50565b61035f6103a3565b8060601b61037457637448fbae5f526004601cfd5b61037d816103da565b50565b5f63389a75e1600c52815f526020600c20549050919050565b5f6202a300905090565b7fffffffffffffffffffffffffffffffffffffffffffffffffffffffff748739275433146103d8576382b429005f526004601cfd5b565b6103e26104a0565b15610447577fffffffffffffffffffffffffffffffffffffffffffffffffffffffff748739278160601b60601c91508181547f8be0079c531659141344cd1fd0a4f28419497f9722a3daafe3b4186f6b6457e05f5fa3811560ff1b821781555061049d565b7fffffffffffffffffffffffffffffffffffffffffffffffffffffffff748739278160601b60601c91508181547f8be0079c531659141344cd1fd0a4f28419497f9722a3daafe3b4186f6b6457e05f5fa3818155505b50565b5f90565b5f5ffd5b5f819050919050565b6104ba816104a8565b81146104c4575f5ffd5b50565b5f813590506104d5816104b1565b92915050565b5f602082840312156104f0576104ef6104a4565b5b5f6104fd848285016104c7565b91505092915050565b5f81519050919050565b5f82825260208201905092915050565b8281835e5f83830152505050565b5f601f19601f8301169050919050565b5f61054882610506565b6105528185610510565b9350610562818560208601610520565b61056b8161052e565b840191505092915050565b5f6020820190508181035f83015261058e818461053e565b905092915050565b61059f816104a8565b82525050565b5f6020820190506105b85f830184610596565b92915050565b5f73ffffffffffffffffffffffffffffffffffffffff82169050919050565b5f6105e7826105be565b9050919050565b6105f7816105dd565b82525050565b5f6020820190506106105f8301846105ee565b92915050565b61061f816105dd565b8114610629575f5ffd5b50565b5f8135905061063a81610616565b92915050565b5f60208284031215610655576106546104a4565b5b5f6106628482850161062c565b91505092915050565b7f4e487b71000000000000000000000000000000000000000000000000000000005f52601160045260245ffd5b5f6106a2826104a8565b91507fffffffffffffffffffffffffffffffffffffffffffffffffffffffffffffffff82036106d4576106d361066b565b5b60018201905091905056fea2646970667358221220bb5093f7c2a099248674cac8bb39e4e4115f2003207c5f70d0c6b67da80356d564736f6c634300081d00330000000000000000000000000000000000000000000000000000",
        "nonce": "0x0",
        "chainId": "0xaa36a7"
      },
      "additionalContracts": [
        {
          "transactionType": "CREATE2",
          "address": "0xc67a2e430ecaa7ba81662fdf653c4c37a1bdbfa3",
          "initCode": "0x67363d3d37363d34f03d5260086018f3"
        },
        {
          "transactionType": "CREATE",
          "address": "0x59a92c7cca7fdda1048eac42724dafb234d6eaf5",
          "initCode": "0x608060405234801561000f575f5ffd5b5061001f3361002460201b60201c565b610104565b61003261010060201b60201c565b156100aa577fffffffffffffffffffffffffffffffffffffffffffffffffffffffff7487392780541561006c57630dc149f05f526004601cfd5b8160601b60601c9150811560ff1b82178155815f7f8be0079c531659141344cd1fd0a4f28419497f9722a3daafe3b4186f6b6457e05f5fa3506100fd565b8060601b60601c9050807fffffffffffffffffffffffffffffffffffffffffffffffffffffffff7487392755805f7f8be0079c531659141344cd1fd0a4f28419497f9722a3daafe3b4186f6b6457e05f5fa35b50565b5f90565b610715806101115f395ff3fe60806040526004361061009b575f3560e01c80638381f58a116100635780638381f58a1461010f5780638da5cb5b14610139578063d09de08a14610163578063f04e283e14610179578063f2fde38b14610195578063fee81cf4146101b15761009b565b8063256929621461009f5780633fb5c1cb146100a957806354d1f13d146100d157806354fd4d50146100db578063715018a614610105575b5f5ffd5b6100a76101ed565b005b3480156100b4575f5ffd5b506100cf60048036038101906100ca91906104db565b61023e565b005b6100d961024f565b005b3480156100e6575f5ffd5b506100ef610288565b6040516100fc9190610576565b60405180910390f35b61010d6102c1565b005b34801561011a575f5ffd5b506101236102d4565b60405161013091906105a5565b60405180910390f35b348015610144575f5ffd5b5061014d6102d9565b60405161015a91906105fd565b60405180910390f35b34801561016e575f5ffd5b50610177610301565b005b610193600480360381019061018e9190610640565b610319565b005b6101af60048036038101906101aa9190610640565b610357565b005b3480156101bc575f5ffd5b506101d760048036038101906101d29190610640565b610380565b6040516101e491906105a5565b60405180910390f35b5f6101f6610399565b67ffffffffffffffff164201905063389a75e1600c52335f52806020600c2055337fdbf36a107da19e49527a7176a1babf963b4b0ff8cde35ee35d6cd8f1f9ac7e1d5f5fa250565b6102466103a3565b805f8190555050565b63389a75e1600c52335f525f6020600c2055337ffa7b8eab7da67f412cc9575ed43464468f9bfbae89d1675917346ca6d8fe3c925f5fa2565b6040518060400160405280600d81526020017f312e302e342d436f756e7465720000000000000000000000000000000000000081525081565b6102c96103a3565b6102d25f6103da565b565b5f5481565b5f7fffffffffffffffffffffffffffffffffffffffffffffffffffffffff7487392754905090565b5f5f81548092919061031290610698565b9190505550565b6103216103a3565b63389a75e1600c52805f526020600c20805442111561034757636f5e88185f526004601cfd5b5f815550610354816103da565b50565b61035f6103a3565b8060601b61037457637448fbae5f526004601cfd5b61037d816103da565b50565b5f63389a75e1600c52815f526020600c20549050919050565b5f6202a300905090565b7fffffffffffffffffffffffffffffffffffffffffffffffffffffffff748739275433146103d8576382b429005f526004601cfd5b565b6103e26104a0565b15610447577fffffffffffffffffffffffffffffffffffffffffffffffffffffffff748739278160601b60601c91508181547f8be0079c531659141344cd1fd0a4f28419497f9722a3daafe3b4186f6b6457e05f5fa3811560ff1b821781555061049d565b7fffffffffffffffffffffffffffffffffffffffffffffffffffffffff748739278160601b60601c91508181547f8be0079c531659141344cd1fd0a4f28419497f9722a3daafe3b4186f6b6457e05f5fa3818155505b50565b5f90565b5f5ffd5b5f819050919050565b6104ba816104a8565b81146104c4575f5ffd5b50565b5f813590506104d5816104b1565b92915050565b5f602082840312156104f0576104ef6104a4565b5b5f6104fd848285016104c7565b91505092915050565b5f81519050919050565b5f82825260208201905092915050565b8281835e5f83830152505050565b5f601f19601f8301169050919050565b5f61054882610506565b6105528185610510565b9350610562818560208601610520565b61056b8161052e565b840191505092915050565b5f6020820190508181035f83015261058e818461053e565b905092915050565b61059f816104a8565b82525050565b5f6020820190506105b85f830184610596565b92915050565b5f73ffffffffffffffffffffffffffffffffffffffff82169050919050565b5f6105e7826105be565b9050919050565b6105f7816105dd565b82525050565b5f6020820190506106105f8301846105ee565b92915050565b61061f816105dd565b8114610629575f5ffd5b50565b5f8135905061063a81610616565b92915050565b5f60208284031215610655576106546104a4565b5b5f6106628482850161062c565b91505092915050565b7f4e487b71000000000000000000000000000000000000000000000000000000005f52601160045260245ffd5b5f6106a2826104a8565b91507fffffffffffffffffffffffffffffffffffffffffffffffffffffffffffffffff82036106d4576106d361066b565b5b60018201905091905056fea2646970667358221220bb5093f7c2a099248674cac8bb39e4e4115f2003207c5f70d0c6b67da80356d564736f6c634300081d0033"
        }
      ],
      "isFixedGasLimit": false
    }
  ],
  "receipts": [
    {
      "status": "0x1",
      "cumulativeGasUsed": "0x2afd5c0",
      "logs": [
        {
          "address": "0xba5ed099633d3b313e4d5f7bdc1305d3c28ba5ed",
          "topics": [
            "0x2feea65dd4e9f9cbd86b74b7734210c59a1b2981b5b137bd0ee3e208200c9067",
            "0x000000000000000000000000c67a2e430ecaa7ba81662fdf653c4c37a1bdbfa3",
            "0x8e46f586451968c7a1eaf008966f69fb74bfe61fcf3d9f1e9470a31e170dd63b"
          ],
          "data": "0x",
          "blockHash": "0xc9f5607fa6817da0a5dcd6270062638b6e23f826561dbe9b0fae411f5380ed14",
          "blockNumber": "0x8364eb",
          "transactionHash": "0x6e1636d6a2a2f3af9b9dd42b3b7bc6037495ef4444531d70d26bba8bed9bbaa7",
          "transactionIndex": "0x66",
          "logIndex": "0xd4",
          "removed": false
        },
        {
          "address": "0x59a92c7cca7fdda1048eac42724dafb234d6eaf5",
          "topics": [
            "0x8be0079c531659141344cd1fd0a4f28419497f9722a3daafe3b4186f6b6457e0",
            "0x0000000000000000000000000000000000000000000000000000000000000000",
            "0x000000000000000000000000c67a2e430ecaa7ba81662fdf653c4c37a1bdbfa3"
          ],
          "data": "0x",
          "blockHash": "0xc9f5607fa6817da0a5dcd6270062638b6e23f826561dbe9b0fae411f5380ed14",
          "blockNumber": "0x8364eb",
          "transactionHash": "0x6e1636d6a2a2f3af9b9dd42b3b7bc6037495ef4444531d70d26bba8bed9bbaa7",
          "transactionIndex": "0x66",
          "logIndex": "0xd5",
          "removed": false
        },
        {
          "address": "0xba5ed099633d3b313e4d5f7bdc1305d3c28ba5ed",
          "topics": [
            "0x4db17dd5e4732fb6da34a148104a592783ca119a1e7bb8829eba6cbadef0b511",
            "0x00000000000000000000000059a92c7cca7fdda1048eac42724dafb234d6eaf5"
          ],
          "data": "0x",
          "blockHash": "0xc9f5607fa6817da0a5dcd6270062638b6e23f826561dbe9b0fae411f5380ed14",
          "blockNumber": "0x8364eb",
          "transactionHash": "0x6e1636d6a2a2f3af9b9dd42b3b7bc6037495ef4444531d70d26bba8bed9bbaa7",
          "transactionIndex": "0x66",
          "logIndex": "0xd6",
          "removed": false
        }
      ],
      "logsBloom": "0x00020000000000000000000000000000000000000000000000800000240000000000004000000000000000000040000000000000000004000000000000000000004000000000000000000000020000000011000000001000000000000000000000000000020000000000000000000800000002000020000000000000000000400000000000000000000000000000000000000000000000000000004000200000000000000000000000000000000000000000000000000000000000000000000000000000000000000200000000000000000000002000000000000000000020200000000000000200000000000100000000000000000100000100000000000000",
      "type": "0x2",
      "transactionHash": "0x6e1636d6a2a2f3af9b9dd42b3b7bc6037495ef4444531d70d26bba8bed9bbaa7",
      "transactionIndex": "0x66",
      "blockHash": "0xc9f5607fa6817da0a5dcd6270062638b6e23f826561dbe9b0fae411f5380ed14",
      "blockNumber": "0x8364eb",
      "gasUsed": "0x7e4a5",
      "effectiveGasPrice": "0xea90d9",
      "from": "0xf45b164f434c1c045156a63b8434b0f717da4d1f",
      "to": "0xba5ed099633d3b313e4d5f7bdc1305d3c28ba5ed",
      "contractAddress": null
    }
  ],
  "libraries": [],
  "pending": [],
  "returns": {},
  "timestamp": 1750675419,
  "chain": 11155111,
  "commit": "bc5fcd7"
}